{
  "_format": "hh-sol-artifact-1",
  "contractName": "Tasks",
  "sourceName": "contracts/Tasks.sol",
  "abi": [
    {
      "anonymous": false,
      "inputs": [
        {
          "indexed": true,
          "internalType": "uint256",
          "name": "id",
          "type": "uint256"
        }
      ],
      "name": "TaskCompleted",
      "type": "event"
    },
    {
      "anonymous": false,
      "inputs": [
        {
          "indexed": true,
          "internalType": "uint256",
          "name": "id",
          "type": "uint256"
        },
        {
          "indexed": false,
          "internalType": "string",
          "name": "name",
          "type": "string"
        },
        {
          "indexed": false,
          "internalType": "string",
          "name": "description",
          "type": "string"
        },
        {
          "indexed": false,
          "internalType": "uint256",
          "name": "dueDate",
          "type": "uint256"
        },
        {
          "indexed": false,
          "internalType": "uint256",
          "name": "completedDate",
          "type": "uint256"
        },
        {
          "indexed": false,
          "internalType": "bool",
          "name": "completed",
          "type": "bool"
        }
      ],
      "name": "TaskCreated",
      "type": "event"
    },
    {
      "anonymous": false,
      "inputs": [
        {
          "indexed": true,
          "internalType": "uint256",
          "name": "id",
          "type": "uint256"
        }
      ],
      "name": "TaskDeleted",
      "type": "event"
    },
    {
      "inputs": [
        {
          "internalType": "uint256",
          "name": "id",
          "type": "uint256"
        },
        {
          "internalType": "uint256",
          "name": "completedDate",
          "type": "uint256"
        }
      ],
      "name": "completeTask",
      "outputs": [],
      "stateMutability": "nonpayable",
      "type": "function"
    },
    {
      "inputs": [
        {
          "internalType": "string",
          "name": "name",
          "type": "string"
        },
        {
          "internalType": "string",
          "name": "description",
          "type": "string"
        },
        {
          "internalType": "uint256",
          "name": "dueDate",
          "type": "uint256"
        },
        {
          "internalType": "uint256",
          "name": "completedDate",
          "type": "uint256"
        }
      ],
      "name": "createTask",
      "outputs": [],
      "stateMutability": "nonpayable",
      "type": "function"
    },
    {
      "inputs": [
        {
          "internalType": "uint256",
          "name": "id",
          "type": "uint256"
        }
      ],
      "name": "deleteTask",
      "outputs": [],
      "stateMutability": "nonpayable",
      "type": "function"
    },
    {
      "inputs": [
        {
          "internalType": "uint256",
          "name": "id",
          "type": "uint256"
        }
      ],
      "name": "getTask",
      "outputs": [
        {
          "components": [
            {
              "internalType": "uint256",
              "name": "id",
              "type": "uint256"
            },
            {
              "internalType": "string",
              "name": "name",
              "type": "string"
            },
            {
              "internalType": "string",
              "name": "description",
              "type": "string"
            },
            {
              "internalType": "uint256",
              "name": "dueDate",
              "type": "uint256"
            },
            {
              "internalType": "uint256",
              "name": "completedDate",
              "type": "uint256"
            },
            {
              "internalType": "bool",
              "name": "completed",
              "type": "bool"
            }
          ],
          "internalType": "struct Tasks.Task",
          "name": "",
          "type": "tuple"
        }
      ],
      "stateMutability": "view",
      "type": "function"
    },
    {
      "inputs": [],
      "name": "getTasks",
      "outputs": [
        {
          "components": [
            {
              "internalType": "uint256",
              "name": "id",
              "type": "uint256"
            },
            {
              "internalType": "string",
              "name": "name",
              "type": "string"
            },
            {
              "internalType": "string",
              "name": "description",
              "type": "string"
            },
            {
              "internalType": "uint256",
              "name": "dueDate",
              "type": "uint256"
            },
            {
              "internalType": "uint256",
              "name": "completedDate",
              "type": "uint256"
            },
            {
              "internalType": "bool",
              "name": "completed",
              "type": "bool"
            }
          ],
          "internalType": "struct Tasks.Task[]",
          "name": "",
          "type": "tuple[]"
        }
      ],
      "stateMutability": "view",
      "type": "function"
    }
  ],
  "bytecode": "0x608060405234801561001057600080fd5b5061120c806100206000396000f3fe608060405234801561001057600080fd5b50600436106100575760003560e01c806304a87e381461005c578063108c8ae41461007a5780631d65e77e14610096578063560f3192146100c6578063a4a268aa146100e2575b600080fd5b6100646100fe565b6040516100719190610a64565b60405180910390f35b610094600480360381019061008f9190610abc565b61031e565b005b6100b060048036038101906100ab9190610afc565b6103fc565b6040516100bd9190610bb9565b60405180910390f35b6100e060048036038101906100db9190610afc565b610586565b005b6100fc60048036038101906100f79190610c40565b610618565b005b606060008054905060008167ffffffffffffffff81111561012257610121610ce7565b5b60405190808252806020026020018201604052801561015b57816020015b6101486107b9565b8152602001906001900390816101405790505b50905060005b8281101561031557600160008281526020019081526020016000206040518060c0016040529081600082015481526020016001820180546101a190610d45565b80601f01602080910402602001604051908101604052809291908181526020018280546101cd90610d45565b801561021a5780601f106101ef5761010080835404028352916020019161021a565b820191906000526020600020905b8154815290600101906020018083116101fd57829003601f168201915b5050505050815260200160028201805461023390610d45565b80601f016020809104026020016040519081016040528092919081815260200182805461025f90610d45565b80156102ac5780601f10610281576101008083540402835291602001916102ac565b820191906000526020600020905b81548152906001019060200180831161028f57829003601f168201915b5050505050815260200160038201548152602001600482015481526020016005820160009054906101000a900460ff1615151515815250508282815181106102f7576102f6610d76565b5b6020026020010181905250808061030d90610dd4565b915050610161565b50809250505090565b6001600083815260200190815260200160002060050160009054906101000a900460ff1615610382576040517f08c379a000000000000000000000000000000000000000000000000000000000815260040161037990610e79565b60405180910390fd5b600180600084815260200190815260200160002060050160006101000a81548160ff021916908315150217905550806001600084815260200190815260200160002060040181905550817fc1fa7142cfb933d0855114a3bffde296944c30b727f297c14d0db4d553d3a5c760405160405180910390a25050565b6104046107b9565b600160008381526020019081526020016000206040518060c00160405290816000820154815260200160018201805461043c90610d45565b80601f016020809104026020016040519081016040528092919081815260200182805461046890610d45565b80156104b55780601f1061048a576101008083540402835291602001916104b5565b820191906000526020600020905b81548152906001019060200180831161049857829003601f168201915b505050505081526020016002820180546104ce90610d45565b80601f01602080910402602001604051908101604052809291908181526020018280546104fa90610d45565b80156105475780601f1061051c57610100808354040283529160200191610547565b820191906000526020600020905b81548152906001019060200180831161052a57829003601f168201915b5050505050815260200160038201548152602001600482015481526020016005820160009054906101000a900460ff1615151515815250509050919050565b600160008281526020019081526020016000206000808201600090556001820160006105b291906107f1565b6002820160006105c291906107f1565b600382016000905560048201600090556005820160006101000a81549060ff02191690555050807fd078b251d950cc55c44340be1db732337ef4939a76e1367ee271ad2cb19c46af60405160405180910390a250565b6040518060c00160405280600054815260200187878080601f016020809104026020016040519081016040528093929190818152602001838380828437600081840152601f19601f82011690508083019250505050505050815260200185858080601f016020809104026020016040519081016040528093929190818152602001838380828437600081840152601f19601f8201169050808301925050505050505081526020018381526020018281526020016000151581525060016000805481526020019081526020016000206000820151816000015560208201518160010190816107059190611045565b50604082015181600201908161071b9190611045565b50606082015181600301556080820151816004015560a08201518160050160006101000a81548160ff0219169083151502179055509050506000547fc0b1ba791fe7f31c160c61a0c8554e67086981a7994c43b2d746d459a4dced6087878787878760006040516107929796959493929190611171565b60405180910390a26000808154809291906107ac90610dd4565b9190505550505050505050565b6040518060c0016040528060008152602001606081526020016060815260200160008152602001600081526020016000151581525090565b5080546107fd90610d45565b6000825580601f1061080f575061082e565b601f01602090049060005260206000209081019061082d9190610831565b5b50565b5b8082111561084a576000816000905550600101610832565b5090565b600081519050919050565b600082825260208201905092915050565b6000819050602082019050919050565b6000819050919050565b61088d8161087a565b82525050565b600081519050919050565b600082825260208201905092915050565b60005b838110156108cd5780820151818401526020810190506108b2565b60008484015250505050565b6000601f19601f8301169050919050565b60006108f582610893565b6108ff818561089e565b935061090f8185602086016108af565b610918816108d9565b840191505092915050565b60008115159050919050565b61093881610923565b82525050565b600060c0830160008301516109566000860182610884565b506020830151848203602086015261096e82826108ea565b9150506040830151848203604086015261098882826108ea565b915050606083015161099d6060860182610884565b5060808301516109b06080860182610884565b5060a08301516109c360a086018261092f565b508091505092915050565b60006109da838361093e565b905092915050565b6000602082019050919050565b60006109fa8261084e565b610a048185610859565b935083602082028501610a168561086a565b8060005b85811015610a525784840389528151610a3385826109ce565b9450610a3e836109e2565b925060208a01995050600181019050610a1a565b50829750879550505050505092915050565b60006020820190508181036000830152610a7e81846109ef565b905092915050565b600080fd5b600080fd5b610a998161087a565b8114610aa457600080fd5b50565b600081359050610ab681610a90565b92915050565b60008060408385031215610ad357610ad2610a86565b5b6000610ae185828601610aa7565b9250506020610af285828601610aa7565b9150509250929050565b600060208284031215610b1257610b11610a86565b5b6000610b2084828501610aa7565b91505092915050565b600060c083016000830151610b416000860182610884565b5060208301518482036020860152610b5982826108ea565b91505060408301518482036040860152610b7382826108ea565b9150506060830151610b886060860182610884565b506080830151610b9b6080860182610884565b5060a0830151610bae60a086018261092f565b508091505092915050565b60006020820190508181036000830152610bd38184610b29565b905092915050565b600080fd5b600080fd5b600080fd5b60008083601f840112610c0057610bff610bdb565b5b8235905067ffffffffffffffff811115610c1d57610c1c610be0565b5b602083019150836001820283011115610c3957610c38610be5565b5b9250929050565b60008060008060008060808789031215610c5d57610c5c610a86565b5b600087013567ffffffffffffffff811115610c7b57610c7a610a8b565b5b610c8789828a01610bea565b9650965050602087013567ffffffffffffffff811115610caa57610ca9610a8b565b5b610cb689828a01610bea565b94509450506040610cc989828a01610aa7565b9250506060610cda89828a01610aa7565b9150509295509295509295565b7f4e487b7100000000000000000000000000000000000000000000000000000000600052604160045260246000fd5b7f4e487b7100000000000000000000000000000000000000000000000000000000600052602260045260246000fd5b60006002820490506001821680610d5d57607f821691505b602082108103610d7057610d6f610d16565b5b50919050565b7f4e487b7100000000000000000000000000000000000000000000000000000000600052603260045260246000fd5b7f4e487b7100000000000000000000000000000000000000000000000000000000600052601160045260246000fd5b6000610ddf8261087a565b91507fffffffffffffffffffffffffffffffffffffffffffffffffffffffffffffffff8203610e1157610e10610da5565b5b600182019050919050565b600082825260208201905092915050565b7f5461736b20697320616c726561647920636f6d706c6574656400000000000000600082015250565b6000610e63601983610e1c565b9150610e6e82610e2d565b602082019050919050565b60006020820190508181036000830152610e9281610e56565b9050919050565b60008190508160005260206000209050919050565b60006020601f8301049050919050565b600082821b905092915050565b600060088302610efb7fffffffffffffffffffffffffffffffffffffffffffffffffffffffffffffffff82610ebe565b610f058683610ebe565b95508019841693508086168417925050509392505050565b6000819050919050565b6000610f42610f3d610f388461087a565b610f1d565b61087a565b9050919050565b6000819050919050565b610f5c83610f27565b610f70610f6882610f49565b848454610ecb565b825550505050565b600090565b610f85610f78565b610f90818484610f53565b505050565b5b81811015610fb457610fa9600082610f7d565b600181019050610f96565b5050565b601f821115610ff957610fca81610e99565b610fd384610eae565b81016020851015610fe2578190505b610ff6610fee85610eae565b830182610f95565b50505b505050565b600082821c905092915050565b600061101c60001984600802610ffe565b1980831691505092915050565b6000611035838361100b565b9150826002028217905092915050565b61104e82610893565b67ffffffffffffffff81111561106757611066610ce7565b5b6110718254610d45565b61107c828285610fb8565b600060209050601f8311600181146110af576000841561109d578287015190505b6110a78582611029565b86555061110f565b601f1984166110bd86610e99565b60005b828110156110e5578489015182556001820191506020850194506020810190506110c0565b8683101561110257848901516110fe601f89168261100b565b8355505b6001600288020188555050505b505050505050565b82818337600083830152505050565b60006111328385610e1c565b935061113f838584611117565b611148836108d9565b840190509392505050565b61115c8161087a565b82525050565b61116b81610923565b82525050565b600060a082019050818103600083015261118c81898b611126565b905081810360208301526111a1818789611126565b90506111b06040830186611153565b6111bd6060830185611153565b6111ca6080830184611162565b9897505050505050505056fea2646970667358221220f405707b4874436d337fa5e64f671ff2cf6a30bd48b1394aac982c4cb2c9174564736f6c63430008120033",
  "linkReferences": {},
  "deployedLinkReferences": {}
}